{
  "_format": "hh-sol-artifact-1",
  "contractName": "BookingEscrow",
  "sourceName": "contracts/BookingEscrow.sol",
  "abi": [
    {
      "inputs": [],
      "stateMutability": "nonpayable",
      "type": "constructor"
    },
    {
      "anonymous": false,
      "inputs": [
        {
          "indexed": true,
          "internalType": "bytes32",
          "name": "id",
          "type": "bytes32"
        }
      ],
      "name": "CanceledBySpa",
      "type": "event"
    },
    {
      "anonymous": false,
      "inputs": [
        {
          "indexed": true,
          "internalType": "bytes32",
          "name": "id",
          "type": "bytes32"
        }
      ],
      "name": "Claimed",
      "type": "event"
    },
    {
      "anonymous": false,
      "inputs": [
        {
          "indexed": true,
          "internalType": "bytes32",
          "name": "id",
          "type": "bytes32"
        },
        {
          "indexed": true,
          "internalType": "address",
          "name": "client",
          "type": "address"
        },
        {
          "indexed": true,
          "internalType": "address",
          "name": "spa",
          "type": "address"
        },
        {
          "indexed": false,
          "internalType": "uint256",
          "name": "amount",
          "type": "uint256"
        }
      ],
      "name": "Created",
      "type": "event"
    },
    {
      "anonymous": false,
      "inputs": [
        {
          "indexed": true,
          "internalType": "bytes32",
          "name": "id",
          "type": "bytes32"
        }
      ],
      "name": "Refunded",
      "type": "event"
    },
    {
      "anonymous": false,
      "inputs": [
        {
          "indexed": true,
          "internalType": "bytes32",
          "name": "id",
          "type": "bytes32"
        }
      ],
      "name": "Released",
      "type": "event"
    },
    {
      "anonymous": false,
      "inputs": [
        {
          "indexed": true,
          "internalType": "bytes32",
          "name": "id",
          "type": "bytes32"
        },
        {
          "indexed": false,
          "internalType": "bool",
          "name": "paidToSpa",
          "type": "bool"
        }
      ],
      "name": "Resolved",
      "type": "event"
    },
    {
      "inputs": [
        {
          "internalType": "bytes32",
          "name": "",
          "type": "bytes32"
        }
      ],
      "name": "bookings",
      "outputs": [
        {
          "internalType": "address payable",
          "name": "client",
          "type": "address"
        },
        {
          "internalType": "address payable",
          "name": "spa",
          "type": "address"
        },
        {
          "internalType": "uint256",
          "name": "amount",
          "type": "uint256"
        },
        {
          "internalType": "uint64",
          "name": "cancelBefore",
          "type": "uint64"
        },
        {
          "internalType": "uint64",
          "name": "graceUntil",
          "type": "uint64"
        },
        {
          "internalType": "enum BookingEscrow.Status",
          "name": "status",
          "type": "uint8"
        }
      ],
      "stateMutability": "view",
      "type": "function"
    },
    {
      "inputs": [
        {
          "internalType": "bytes32",
          "name": "id",
          "type": "bytes32"
        }
      ],
      "name": "cancelByClient",
      "outputs": [],
      "stateMutability": "nonpayable",
      "type": "function"
    },
    {
      "inputs": [
        {
          "internalType": "bytes32",
          "name": "id",
          "type": "bytes32"
        }
      ],
      "name": "cancelBySpa",
      "outputs": [],
      "stateMutability": "nonpayable",
      "type": "function"
    },
    {
      "inputs": [
        {
          "internalType": "bytes32",
          "name": "id",
          "type": "bytes32"
        }
      ],
      "name": "claimNoShow",
      "outputs": [],
      "stateMutability": "nonpayable",
      "type": "function"
    },
    {
      "inputs": [
        {
          "internalType": "bytes32",
          "name": "id",
          "type": "bytes32"
        }
      ],
      "name": "confirmService",
      "outputs": [],
      "stateMutability": "nonpayable",
      "type": "function"
    },
    {
      "inputs": [
        {
          "internalType": "bytes32",
          "name": "id",
          "type": "bytes32"
        },
        {
          "internalType": "address payable",
          "name": "spa",
          "type": "address"
        },
        {
          "internalType": "uint64",
          "name": "cancelBefore",
          "type": "uint64"
        },
        {
          "internalType": "uint64",
          "name": "graceUntil",
          "type": "uint64"
        }
      ],
      "name": "createBooking",
      "outputs": [],
      "stateMutability": "payable",
      "type": "function"
    },
    {
      "inputs": [],
      "name": "owner",
      "outputs": [
        {
          "internalType": "address",
          "name": "",
          "type": "address"
        }
      ],
      "stateMutability": "view",
      "type": "function"
    },
    {
      "inputs": [
        {
          "internalType": "bytes32",
          "name": "id",
          "type": "bytes32"
        },
        {
          "internalType": "bool",
          "name": "payToSpa",
          "type": "bool"
        }
      ],
      "name": "resolveDispute",
      "outputs": [],
      "stateMutability": "nonpayable",
      "type": "function"
    },
    {
      "inputs": [],
      "name": "testing",
      "outputs": [
        {
          "internalType": "bool",
          "name": "",
          "type": "bool"
        }
      ],
      "stateMutability": "view",
      "type": "function"
    }
  ],
  "bytecode": "0x608060405260018060006101000a81548160ff02191690831515021790555034801561002a57600080fd5b506001600081905550336001806101000a81548173ffffffffffffffffffffffffffffffffffffffff021916908373ffffffffffffffffffffffffffffffffffffffff160217905550611c21806100826000396000f3fe6080604052600436106100865760003560e01c80638d03b102116100595780638d03b102146101225780638da5cb5b1461014d578063bbacc18714610178578063eab67bff146101ba578063fb5b6b2f146101e357610086565b806304313af11461008b578063380ef4e5146100b457806343a0e3e6146100dd57806361b6b82f14610106575b600080fd5b34801561009757600080fd5b506100b260048036038101906100ad91906113b6565b61020c565b005b3480156100c057600080fd5b506100db60048036038101906100d691906113b6565b610484565b005b3480156100e957600080fd5b5061010460048036038101906100ff919061141b565b6106fc565b005b610120600480360381019061011b91906114f9565b61099e565b005b34801561012e57600080fd5b50610137610cf9565b604051610144919061156f565b60405180910390f35b34801561015957600080fd5b50610162610d0c565b60405161016f91906115ab565b60405180910390f35b34801561018457600080fd5b5061019f600480360381019061019a91906113b6565b610d30565b6040516101b196959493929190611674565b60405180910390f35b3480156101c657600080fd5b506101e160048036038101906101dc91906113b6565b610de1565b005b3480156101ef57600080fd5b5061020a600480360381019061020591906113b6565b611059565b005b806002600082815260200190815260200160002060010160009054906101000a900473ffffffffffffffffffffffffffffffffffffffff1673ffffffffffffffffffffffffffffffffffffffff163373ffffffffffffffffffffffffffffffffffffffff16146102b1576040517f08c379a00000000000000000000000000000000000000000000000000000000081526004016102a890611732565b60405180910390fd5b6102b9611322565b6000600260008481526020019081526020016000209050600160068111156102e4576102e36115fd565b5b8160030160109054906101000a900460ff166006811115610308576103076115fd565b5b14610348576040517f08c379a000000000000000000000000000000000000000000000000000000000815260040161033f9061179e565b60405180910390fd5b60028160030160106101000a81548160ff021916908360068111156103705761036f6115fd565b5b021790555060008160010160009054906101000a900473ffffffffffffffffffffffffffffffffffffffff1673ffffffffffffffffffffffffffffffffffffffff1682600201546040516103c3906117ef565b60006040518083038185875af1925050503d8060008114610400576040519150601f19603f3d011682016040523d82523d6000602084013e610405565b606091505b5050905080610449576040517f08c379a000000000000000000000000000000000000000000000000000000000815260040161044090611850565b60405180910390fd5b837f6eec2dd2382427616d4ea7ef183b16091feac4e2e63c8b55f25215f132df8d1460405160405180910390a25050610480611371565b5050565b806002600082815260200190815260200160002060010160009054906101000a900473ffffffffffffffffffffffffffffffffffffffff1673ffffffffffffffffffffffffffffffffffffffff163373ffffffffffffffffffffffffffffffffffffffff1614610529576040517f08c379a000000000000000000000000000000000000000000000000000000000815260040161052090611732565b60405180910390fd5b610531611322565b60006002600084815260200190815260200160002090506001600681111561055c5761055b6115fd565b5b8160030160109054906101000a900460ff1660068111156105805761057f6115fd565b5b146105c0576040517f08c379a00000000000000000000000000000000000000000000000000000000081526004016105b79061179e565b60405180910390fd5b60048160030160106101000a81548160ff021916908360068111156105e8576105e76115fd565b5b021790555060008160010160009054906101000a900473ffffffffffffffffffffffffffffffffffffffff1673ffffffffffffffffffffffffffffffffffffffff16826002015460405161063b906117ef565b60006040518083038185875af1925050503d8060008114610678576040519150601f19603f3d011682016040523d82523d6000602084013e61067d565b606091505b50509050806106c1576040517f08c379a00000000000000000000000000000000000000000000000000000000081526004016106b890611850565b60405180910390fd5b837feddf608ef698454af2fb41c1df7b7e5154ff0d46969f895e0f39c7dfe7e6380a60405160405180910390a250506106f8611371565b5050565b60018054906101000a900473ffffffffffffffffffffffffffffffffffffffff1673ffffffffffffffffffffffffffffffffffffffff163373ffffffffffffffffffffffffffffffffffffffff161461078a576040517f08c379a0000000000000000000000000000000000000000000000000000000008152600401610781906118bc565b60405180910390fd5b610792611322565b6000600260008481526020019081526020016000209050600160068111156107bd576107bc6115fd565b5b8160030160109054906101000a900460ff1660068111156107e1576107e06115fd565b5b14610821576040517f08c379a000000000000000000000000000000000000000000000000000000000815260040161081890611928565b60405180910390fd5b60068160030160106101000a81548160ff02191690836006811115610849576108486115fd565b5b021790555060008261087f578160000160009054906101000a900473ffffffffffffffffffffffffffffffffffffffff166108a5565b8160010160009054906101000a900473ffffffffffffffffffffffffffffffffffffffff165b905060008173ffffffffffffffffffffffffffffffffffffffff1683600201546040516108d1906117ef565b60006040518083038185875af1925050503d806000811461090e576040519150601f19603f3d011682016040523d82523d6000602084013e610913565b606091505b5050905080610957576040517f08c379a000000000000000000000000000000000000000000000000000000000815260040161094e90611850565b60405180910390fd5b847f36d470f3e40a64c47549ae6daf1b8de8709230050d634953fe0718238bc9a8c785604051610987919061156f565b60405180910390a250505061099a611371565b5050565b6109a6611322565b600060068111156109ba576109b96115fd565b5b6002600086815260200190815260200160002060030160109054906101000a900460ff1660068111156109f0576109ef6115fd565b5b14610a30576040517f08c379a0000000000000000000000000000000000000000000000000000000008152600401610a2790611994565b60405180910390fd5b60003411610a73576040517f08c379a0000000000000000000000000000000000000000000000000000000008152600401610a6a90611a00565b60405180910390fd5b8167ffffffffffffffff168167ffffffffffffffff1611610ac9576040517f08c379a0000000000000000000000000000000000000000000000000000000008152600401610ac090611a6c565b60405180910390fd5b6040518060c001604052803373ffffffffffffffffffffffffffffffffffffffff1681526020018473ffffffffffffffffffffffffffffffffffffffff1681526020013481526020018367ffffffffffffffff1681526020018267ffffffffffffffff16815260200160016006811115610b4657610b456115fd565b5b8152506002600086815260200190815260200160002060008201518160000160006101000a81548173ffffffffffffffffffffffffffffffffffffffff021916908373ffffffffffffffffffffffffffffffffffffffff16021790555060208201518160010160006101000a81548173ffffffffffffffffffffffffffffffffffffffff021916908373ffffffffffffffffffffffffffffffffffffffff1602179055506040820151816002015560608201518160030160006101000a81548167ffffffffffffffff021916908367ffffffffffffffff16021790555060808201518160030160086101000a81548167ffffffffffffffff021916908367ffffffffffffffff16021790555060a08201518160030160106101000a81548160ff02191690836006811115610c7d57610c7c6115fd565b5b02179055509050508273ffffffffffffffffffffffffffffffffffffffff163373ffffffffffffffffffffffffffffffffffffffff16857fb544cb9dc572c90ecea4fd34f07db17ea6ee035f63f52be071b2dcf2e060ab4b34604051610ce39190611a8c565b60405180910390a4610cf3611371565b50505050565b600160009054906101000a900460ff1681565b60018054906101000a900473ffffffffffffffffffffffffffffffffffffffff1681565b60026020528060005260406000206000915090508060000160009054906101000a900473ffffffffffffffffffffffffffffffffffffffff16908060010160009054906101000a900473ffffffffffffffffffffffffffffffffffffffff16908060020154908060030160009054906101000a900467ffffffffffffffff16908060030160089054906101000a900467ffffffffffffffff16908060030160109054906101000a900460ff16905086565b806002600082815260200190815260200160002060010160009054906101000a900473ffffffffffffffffffffffffffffffffffffffff1673ffffffffffffffffffffffffffffffffffffffff163373ffffffffffffffffffffffffffffffffffffffff1614610e86576040517f08c379a0000000000000000000000000000000000000000000000000000000008152600401610e7d90611732565b60405180910390fd5b610e8e611322565b600060026000848152602001908152602001600020905060016006811115610eb957610eb86115fd565b5b8160030160109054906101000a900460ff166006811115610edd57610edc6115fd565b5b14610f1d576040517f08c379a0000000000000000000000000000000000000000000000000000000008152600401610f149061179e565b60405180910390fd5b60058160030160106101000a81548160ff02191690836006811115610f4557610f446115fd565b5b021790555060008160000160009054906101000a900473ffffffffffffffffffffffffffffffffffffffff1673ffffffffffffffffffffffffffffffffffffffff168260020154604051610f98906117ef565b60006040518083038185875af1925050503d8060008114610fd5576040519150601f19603f3d011682016040523d82523d6000602084013e610fda565b606091505b505090508061101e576040517f08c379a000000000000000000000000000000000000000000000000000000000815260040161101590611850565b60405180910390fd5b837facb6b252aab6d5a1d157502d0e78d9c6fc92c521773eda03456149be561fd68d60405160405180910390a25050611055611371565b5050565b611061611322565b60006002600083815260200190815260200160002090508060000160009054906101000a900473ffffffffffffffffffffffffffffffffffffffff1673ffffffffffffffffffffffffffffffffffffffff163373ffffffffffffffffffffffffffffffffffffffff161461110a576040517f08c379a000000000000000000000000000000000000000000000000000000000815260040161110190611af3565b60405180910390fd5b6001600681111561111e5761111d6115fd565b5b8160030160109054906101000a900460ff166006811115611142576111416115fd565b5b14611182576040517f08c379a00000000000000000000000000000000000000000000000000000000081526004016111799061179e565b60405180910390fd5b8060030160009054906101000a900467ffffffffffffffff1667ffffffffffffffff164211156111e7576040517f08c379a00000000000000000000000000000000000000000000000000000000081526004016111de90611b5f565b60405180910390fd5b60038160030160106101000a81548160ff0219169083600681111561120f5761120e6115fd565b5b021790555060008160000160009054906101000a900473ffffffffffffffffffffffffffffffffffffffff1673ffffffffffffffffffffffffffffffffffffffff168260020154604051611262906117ef565b60006040518083038185875af1925050503d806000811461129f576040519150601f19603f3d011682016040523d82523d6000602084013e6112a4565b606091505b50509050806112e8576040517f08c379a00000000000000000000000000000000000000000000000000000000081526004016112df90611850565b60405180910390fd5b827ffe509803c09416b28ff3d8f690c8b0c61462a892c46d5430c8fb20abe472daf060405160405180910390a2505061131f611371565b50565b600260005403611367576040517f08c379a000000000000000000000000000000000000000000000000000000000815260040161135e90611bcb565b60405180910390fd5b6002600081905550565b6001600081905550565b600080fd5b6000819050919050565b61139381611380565b811461139e57600080fd5b50565b6000813590506113b08161138a565b92915050565b6000602082840312156113cc576113cb61137b565b5b60006113da848285016113a1565b91505092915050565b60008115159050919050565b6113f8816113e3565b811461140357600080fd5b50565b600081359050611415816113ef565b92915050565b600080604083850312156114325761143161137b565b5b6000611440858286016113a1565b925050602061145185828601611406565b9150509250929050565b600073ffffffffffffffffffffffffffffffffffffffff82169050919050565b60006114868261145b565b9050919050565b6114968161147b565b81146114a157600080fd5b50565b6000813590506114b38161148d565b92915050565b600067ffffffffffffffff82169050919050565b6114d6816114b9565b81146114e157600080fd5b50565b6000813590506114f3816114cd565b92915050565b600080600080608085870312156115135761151261137b565b5b6000611521878288016113a1565b9450506020611532878288016114a4565b9350506040611543878288016114e4565b9250506060611554878288016114e4565b91505092959194509250565b611569816113e3565b82525050565b60006020820190506115846000830184611560565b92915050565b60006115958261145b565b9050919050565b6115a58161158a565b82525050565b60006020820190506115c0600083018461159c565b92915050565b6115cf8161147b565b82525050565b6000819050919050565b6115e8816115d5565b82525050565b6115f7816114b9565b82525050565b7f4e487b7100000000000000000000000000000000000000000000000000000000600052602160045260246000fd5b6007811061163d5761163c6115fd565b5b50565b600081905061164e8261162c565b919050565b600061165e82611640565b9050919050565b61166e81611653565b82525050565b600060c08201905061168960008301896115c6565b61169660208301886115c6565b6116a360408301876115df565b6116b060608301866115ee565b6116bd60808301856115ee565b6116ca60a0830184611665565b979650505050505050565b600082825260208201905092915050565b7f6f6e6c7920737061000000000000000000000000000000000000000000000000600082015250565b600061171c6008836116d5565b9150611727826116e6565b602082019050919050565b6000602082019050818103600083015261174b8161170f565b9050919050565b7f6261642073746174757300000000000000000000000000000000000000000000600082015250565b6000611788600a836116d5565b915061179382611752565b602082019050919050565b600060208201905081810360008301526117b78161177b565b9050919050565b600081905092915050565b50565b60006117d96000836117be565b91506117e4826117c9565b600082019050919050565b60006117fa826117cc565b9150819050919050565b7f7472616e73666572206661696c65640000000000000000000000000000000000600082015250565b600061183a600f836116d5565b915061184582611804565b602082019050919050565b600060208201905081810360008301526118698161182d565b9050919050565b7f6f6e6c79206f776e657200000000000000000000000000000000000000000000600082015250565b60006118a6600a836116d5565b91506118b182611870565b602082019050919050565b600060208201905081810360008301526118d581611899565b9050919050565b7f756e7265736f6c7661626c650000000000000000000000000000000000000000600082015250565b6000611912600c836116d5565b915061191d826118dc565b602082019050919050565b6000602082019050818103600083015261194181611905565b9050919050565b7f4944206578697374730000000000000000000000000000000000000000000000600082015250565b600061197e6009836116d5565b915061198982611948565b602082019050919050565b600060208201905081810360008301526119ad81611971565b9050919050565b7f6e6f206465706f73697400000000000000000000000000000000000000000000600082015250565b60006119ea600a836116d5565b91506119f5826119b4565b602082019050919050565b60006020820190508181036000830152611a19816119dd565b9050919050565b7f6772616365203e2063616e63656c000000000000000000000000000000000000600082015250565b6000611a56600e836116d5565b9150611a6182611a20565b602082019050919050565b60006020820190508181036000830152611a8581611a49565b9050919050565b6000602082019050611aa160008301846115df565b92915050565b7f6f6e6c7920636c69656e74000000000000000000000000000000000000000000600082015250565b6000611add600b836116d5565b9150611ae882611aa7565b602082019050919050565b60006020820190508181036000830152611b0c81611ad0565b9050919050565b7f746f6f206c617465000000000000000000000000000000000000000000000000600082015250565b6000611b496008836116d5565b9150611b5482611b13565b602082019050919050565b60006020820190508181036000830152611b7881611b3c565b9050919050565b7f5265656e7472616e637947756172643a207265656e7472616e742063616c6c00600082015250565b6000611bb5601f836116d5565b9150611bc082611b7f565b602082019050919050565b60006020820190508181036000830152611be481611ba8565b905091905056fea2646970667358221220f4e3c89db9c4c07923224794b22e57cde0ce2111ea649a042180b693ee52fb4e64736f6c63430008140033",
  "linkReferences": {},
  "deployedLinkReferences": {}
}